:100000000C9446000C945D000C945D000C945D0013
:100010000C945D000C945D000C945D000C945D00EC
:100020000C945D000C945D000C945D000C945D00DC
:100030000C945D000C945D000C945D000C945D00CC
:100040000C945D000C945D000C945D000C945D00BC
:100050000C945D000C945D000C945D000C945D00AC
:100060000C945D000C945D000C945D000C945D009C
:100070000C945D000C945D000C945D000C945D008C
:100080000C945D000C945D000C945D0011241FBE67
:10009000CFEFD0E4DEBFCDBF11E0A0E0B1E0ECECEB
:1000A000F1E000E00BBF02C007900D92AE30B10747
:1000B000D9F70E9488000C94E4000C940000CF93C0
:1000C000DF9300D01F92CDB7DEB789837B836A832D
:1000D00089818A3031F48A819B81BC018DE00E9444
:1000E0005F0080EC90E0FC018081882F90E08072BE
:1000F00099270097B1F386EC90E02981FC012083D9
:1001000080E090E00F900F900F90DF91CF910895D5
:10011000CF93DF9300D01F92CDB7DEB781E290E09E
:10012000FC01108282E290E02FEFFC01208384E248
:1001300090E0FC01108285E290E02FEFFC0120832B
:1001400087E290E02FEFFC01208388E290E0FC0141
:1001500010821A828A81898389818B8328C080E2F8
:1001600090E0FC018081882F90E02B81222F30E0ED
:1001700002C0959587952A95E2F781709981890F3C
:10018000898383E290E0FC018081882F90E02B81BD
:10019000222F30E0022E02C0959587950A94E2F74F
:1001A00081709A81890F8A838B818F5F8B838B818A
:1001B0008730A8F299818A81890F898388E290E04B
:0C01C0002981FC012083C5CFF894FFCFFB
:0E01CC0000000002000000005F0000000000C4
:00000001FF
